{
  "_format": "hh-sol-artifact-1",
  "contractName": "crowdfunding",
  "sourceName": "contracts/CrowdFunding.sol",
  "abi": [
    {
      "inputs": [],
      "stateMutability": "nonpayable",
      "type": "constructor"
    },
    {
      "anonymous": false,
      "inputs": [
        {
          "indexed": false,
          "internalType": "string",
          "name": "description",
          "type": "string"
        },
        {
          "indexed": false,
          "internalType": "string",
          "name": "image",
          "type": "string"
        },
        {
          "indexed": false,
          "internalType": "address",
          "name": "recipient",
          "type": "address"
        },
        {
          "indexed": false,
          "internalType": "uint256",
          "name": "target",
          "type": "uint256"
        },
        {
          "indexed": false,
          "internalType": "uint256",
          "name": "noOfVoters",
          "type": "uint256"
        },
        {
          "indexed": true,
          "internalType": "uint256",
          "name": "timestamp",
          "type": "uint256"
        }
      ],
      "name": "RequestPaid",
      "type": "event"
    },
    {
      "anonymous": false,
      "inputs": [
        {
          "indexed": true,
          "internalType": "address",
          "name": "contributer",
          "type": "address"
        },
        {
          "indexed": true,
          "internalType": "uint256",
          "name": "Amount",
          "type": "uint256"
        },
        {
          "indexed": true,
          "internalType": "uint256",
          "name": "timestamp",
          "type": "uint256"
        }
      ],
      "name": "Transcations",
      "type": "event"
    },
    {
      "inputs": [
        {
          "internalType": "uint256",
          "name": "i",
          "type": "uint256"
        },
        {
          "internalType": "address",
          "name": "recipient",
          "type": "address"
        }
      ],
      "name": "Checkvoter",
      "outputs": [
        {
          "internalType": "bool",
          "name": "",
          "type": "bool"
        }
      ],
      "stateMutability": "view",
      "type": "function"
    },
    {
      "inputs": [
        {
          "internalType": "address",
          "name": "",
          "type": "address"
        }
      ],
      "name": "contributers",
      "outputs": [
        {
          "internalType": "bool",
          "name": "voted",
          "type": "bool"
        },
        {
          "internalType": "uint256",
          "name": "Amount",
          "type": "uint256"
        }
      ],
      "stateMutability": "view",
      "type": "function"
    },
    {
      "inputs": [
        {
          "internalType": "string",
          "name": "_title",
          "type": "string"
        },
        {
          "internalType": "string",
          "name": "_description",
          "type": "string"
        },
        {
          "internalType": "string",
          "name": "_image",
          "type": "string"
        },
        {
          "internalType": "address",
          "name": "_recipient",
          "type": "address"
        },
        {
          "internalType": "uint256",
          "name": "value",
          "type": "uint256"
        }
      ],
      "name": "createRequest",
      "outputs": [],
      "stateMutability": "nonpayable",
      "type": "function"
    },
    {
      "inputs": [],
      "name": "getAllRequests",
      "outputs": [
        {
          "components": [
            {
              "internalType": "string",
              "name": "title",
              "type": "string"
            },
            {
              "internalType": "string",
              "name": "description",
              "type": "string"
            },
            {
              "internalType": "string",
              "name": "image",
              "type": "string"
            },
            {
              "internalType": "address",
              "name": "recipient",
              "type": "address"
            },
            {
              "internalType": "uint256",
              "name": "target",
              "type": "uint256"
            },
            {
              "internalType": "bool",
              "name": "completed",
              "type": "bool"
            },
            {
              "internalType": "uint256",
              "name": "noOfVoters",
              "type": "uint256"
            },
            {
              "internalType": "uint256",
              "name": "requestid",
              "type": "uint256"
            },
            {
              "internalType": "uint256",
              "name": "timestamp",
              "type": "uint256"
            }
          ],
          "internalType": "struct crowdfunding.Request[]",
          "name": "",
          "type": "tuple[]"
        }
      ],
      "stateMutability": "view",
      "type": "function"
    },
    {
      "inputs": [],
      "name": "getAmountDonted",
      "outputs": [
        {
          "internalType": "uint256",
          "name": "",
          "type": "uint256"
        }
      ],
      "stateMutability": "view",
      "type": "function"
    },
    {
      "inputs": [],
      "name": "getBalance",
      "outputs": [
        {
          "internalType": "uint256",
          "name": "",
          "type": "uint256"
        }
      ],
      "stateMutability": "view",
      "type": "function"
    },
    {
      "inputs": [],
      "name": "getRefund",
      "outputs": [],
      "stateMutability": "nonpayable",
      "type": "function"
    },
    {
      "inputs": [
        {
          "internalType": "uint256",
          "name": "_requestNo",
          "type": "uint256"
        }
      ],
      "name": "makePayment",
      "outputs": [],
      "stateMutability": "nonpayable",
      "type": "function"
    },
    {
      "inputs": [
        {
          "internalType": "uint256",
          "name": "requestNo",
          "type": "uint256"
        }
      ],
      "name": "makeVote",
      "outputs": [],
      "stateMutability": "nonpayable",
      "type": "function"
    },
    {
      "inputs": [],
      "name": "manager",
      "outputs": [
        {
          "internalType": "address",
          "name": "",
          "type": "address"
        }
      ],
      "stateMutability": "view",
      "type": "function"
    },
    {
      "inputs": [],
      "name": "minimumContribution",
      "outputs": [
        {
          "internalType": "uint256",
          "name": "",
          "type": "uint256"
        }
      ],
      "stateMutability": "view",
      "type": "function"
    },
    {
      "inputs": [],
      "name": "noOfContributors",
      "outputs": [
        {
          "internalType": "uint256",
          "name": "",
          "type": "uint256"
        }
      ],
      "stateMutability": "view",
      "type": "function"
    },
    {
      "inputs": [],
      "name": "numRequest",
      "outputs": [
        {
          "internalType": "uint256",
          "name": "",
          "type": "uint256"
        }
      ],
      "stateMutability": "view",
      "type": "function"
    },
    {
      "inputs": [],
      "name": "raisedAmount",
      "outputs": [
        {
          "internalType": "uint256",
          "name": "",
          "type": "uint256"
        }
      ],
      "stateMutability": "view",
      "type": "function"
    },
    {
      "inputs": [
        {
          "internalType": "uint256",
          "name": "",
          "type": "uint256"
        }
      ],
      "name": "requests",
      "outputs": [
        {
          "internalType": "string",
          "name": "title",
          "type": "string"
        },
        {
          "internalType": "string",
          "name": "description",
          "type": "string"
        },
        {
          "internalType": "string",
          "name": "image",
          "type": "string"
        },
        {
          "internalType": "address",
          "name": "recipient",
          "type": "address"
        },
        {
          "internalType": "uint256",
          "name": "target",
          "type": "uint256"
        },
        {
          "internalType": "bool",
          "name": "completed",
          "type": "bool"
        },
        {
          "internalType": "uint256",
          "name": "noOfVoters",
          "type": "uint256"
        },
        {
          "internalType": "uint256",
          "name": "requestid",
          "type": "uint256"
        },
        {
          "internalType": "uint256",
          "name": "timestamp",
          "type": "uint256"
        }
      ],
      "stateMutability": "view",
      "type": "function"
    },
    {
      "inputs": [],
      "name": "sendEth",
      "outputs": [],
      "stateMutability": "payable",
      "type": "function"
    },
    {
      "inputs": [],
      "name": "vaildForRefund",
      "outputs": [
        {
          "internalType": "bool",
          "name": "",
          "type": "bool"
        }
      ],
      "stateMutability": "view",
      "type": "function"
    }
  ],
  "bytecode": "0x608060405234801561001057600080fd5b5033600160006101000a81548173ffffffffffffffffffffffffffffffffffffffff021916908373ffffffffffffffffffffffffffffffffffffffff1602179055506103e86002819055506126be8061006a6000396000f3fe6080604052600436106100fe5760003560e01c806381d12c5811610095578063b1b1643111610064578063b1b164311461030d578063b2d5ae4414610338578063c59ee1dc1461034f578063e80f3fe71461037a578063fb1a002a146103b7576100fe565b806381d12c5814610249578063937e09b11461028e57806398da069f146102b9578063a3acae30146102e4576100fe565b80633eaf7591116100d15780633eaf7591146101a1578063481c6a75146101ca5780634e260f6f146101f55780635114cb5214610220576100fe565b806306e99fef1461010357806312065fe01461010d5780633439629e1461013857806334b6646014610163575b600080fd5b61010b6103e2565b005b34801561011957600080fd5b5061012261059c565b60405161012f91906117a9565b60405180910390f35b34801561014457600080fd5b5061014d6105a4565b60405161015a91906117df565b60405180910390f35b34801561016f57600080fd5b5061018a6004803603810190610185919061186c565b610611565b604051610198929190611899565b60405180910390f35b3480156101ad57600080fd5b506101c860048036038101906101c391906118ee565b610642565b005b3480156101d657600080fd5b506101df610883565b6040516101ec919061192a565b60405180910390f35b34801561020157600080fd5b5061020a6108a9565b60405161021791906117a9565b60405180910390f35b34801561022c57600080fd5b50610247600480360381019061024291906118ee565b6108af565b005b34801561025557600080fd5b50610270600480360381019061026b91906118ee565b610b7e565b604051610285999897969594939291906119de565b60405180910390f35b34801561029a57600080fd5b506102a3610da1565b6040516102b091906117a9565b60405180910390f35b3480156102c557600080fd5b506102ce610da7565b6040516102db91906117a9565b60405180910390f35b3480156102f057600080fd5b5061030b60048036038101906103069190611bb5565b610df0565b005b34801561031957600080fd5b506103226110e4565b60405161032f91906117a9565b60405180910390f35b34801561034457600080fd5b5061034d6110ea565b005b34801561035b57600080fd5b50610364611316565b60405161037191906117a9565b60405180910390f35b34801561038657600080fd5b506103a1600480360381019061039c9190611c84565b61131c565b6040516103ae91906117df565b60405180910390f35b3480156103c357600080fd5b506103cc61143e565b6040516103d99190611ed0565b60405180910390f35b600254341015610427576040517f08c379a000000000000000000000000000000000000000000000000000000000815260040161041e90611f64565b60405180910390fd5b60008060003373ffffffffffffffffffffffffffffffffffffffff1673ffffffffffffffffffffffffffffffffffffffff1681526020019081526020016000206001015414156104e4576004600081548092919061048490611fb3565b919050555060008060003373ffffffffffffffffffffffffffffffffffffffff1673ffffffffffffffffffffffffffffffffffffffff16815260200190815260200160002060000160006101000a81548160ff0219169083151502179055505b34600360008282546104f69190611ffc565b92505081905550346000803373ffffffffffffffffffffffffffffffffffffffff1673ffffffffffffffffffffffffffffffffffffffff168152602001908152602001600020600101600082825461054e9190611ffc565b9250508190555042343373ffffffffffffffffffffffffffffffffffffffff167f58155a5b0cc47bdbf94d4291a6f30f95533e23ee90d19cc878437e94d8bfe27f60405160405180910390a4565b600047905090565b60008015156000803373ffffffffffffffffffffffffffffffffffffffff1673ffffffffffffffffffffffffffffffffffffffff16815260200190815260200160002060000160009054906101000a900460ff1615151415610609576001905061060e565b600090505b90565b60006020528060005260406000206000915090508060000160009054906101000a900460ff16908060010154905082565b6002546000803373ffffffffffffffffffffffffffffffffffffffff1673ffffffffffffffffffffffffffffffffffffffff16815260200190815260200160002060010154116106c7576040517f08c379a00000000000000000000000000000000000000000000000000000000081526004016106be9061209e565b60405180910390fd5b6000600782815481106106dd576106dc6120be565b5b90600052602060002090600902019050600015156106fb833361131c565b15151461073d576040517f08c379a000000000000000000000000000000000000000000000000000000000815260040161073490612139565b60405180910390fd5b600015158160050160009054906101000a900460ff16151514610795576040517f08c379a000000000000000000000000000000000000000000000000000000000815260040161078c906121a5565b60405180910390fd5b60066000838152602001908152602001600020339080600181540180825580915050600190039060005260206000200160009091909190916101000a81548173ffffffffffffffffffffffffffffffffffffffff021916908373ffffffffffffffffffffffffffffffffffffffff16021790555060016000803373ffffffffffffffffffffffffffffffffffffffff1673ffffffffffffffffffffffffffffffffffffffff16815260200190815260200160002060000160006101000a81548160ff02191690831515021790555060018160060160008282546108789190611ffc565b925050819055505050565b600160009054906101000a900473ffffffffffffffffffffffffffffffffffffffff1681565b60045481565b600160009054906101000a900473ffffffffffffffffffffffffffffffffffffffff1673ffffffffffffffffffffffffffffffffffffffff163373ffffffffffffffffffffffffffffffffffffffff161461093f576040517f08c379a000000000000000000000000000000000000000000000000000000000815260040161093690612237565b60405180910390fd5b600060078281548110610955576109546120be565b5b906000526020600020906009020190508060040154600354116109ad576040517f08c379a00000000000000000000000000000000000000000000000000000000081526004016109a4906122a3565b60405180910390fd5b600015158160050160009054906101000a900460ff16151514610a05576040517f08c379a00000000000000000000000000000000000000000000000000000000081526004016109fc906121a5565b60405180910390fd5b6002600454610a1491906122f2565b816006015411610a59576040517f08c379a0000000000000000000000000000000000000000000000000000000008152600401610a509061236f565b60405180910390fd5b60008160030160009054906101000a900473ffffffffffffffffffffffffffffffffffffffff1690508073ffffffffffffffffffffffffffffffffffffffff166108fc83600401549081150290604051600060405180830381858888f19350505050158015610acc573d6000803e3d6000fd5b5060018260050160006101000a81548160ff021916908315150217905550816004015460036000828254610b00919061238f565b92505081905550427feecf3b6838b37a75f418a8615bea75c375f69bda9e436ab220c2ef3bd5cec65283600101846002018560030160009054906101000a900473ffffffffffffffffffffffffffffffffffffffff1686600401548760060154604051610b719594939291906124b9565b60405180910390a2505050565b60078181548110610b8e57600080fd5b9060005260206000209060090201600091509050806000018054610bb1906123f2565b80601f0160208091040260200160405190810160405280929190818152602001828054610bdd906123f2565b8015610c2a5780601f10610bff57610100808354040283529160200191610c2a565b820191906000526020600020905b815481529060010190602001808311610c0d57829003601f168201915b505050505090806001018054610c3f906123f2565b80601f0160208091040260200160405190810160405280929190818152602001828054610c6b906123f2565b8015610cb85780601f10610c8d57610100808354040283529160200191610cb8565b820191906000526020600020905b815481529060010190602001808311610c9b57829003601f168201915b505050505090806002018054610ccd906123f2565b80601f0160208091040260200160405190810160405280929190818152602001828054610cf9906123f2565b8015610d465780601f10610d1b57610100808354040283529160200191610d46565b820191906000526020600020905b815481529060010190602001808311610d2957829003601f168201915b5050505050908060030160009054906101000a900473ffffffffffffffffffffffffffffffffffffffff16908060040154908060050160009054906101000a900460ff16908060060154908060070154908060080154905089565b60025481565b60008060003373ffffffffffffffffffffffffffffffffffffffff1673ffffffffffffffffffffffffffffffffffffffff16815260200190815260200160002060010154905090565b600160009054906101000a900473ffffffffffffffffffffffffffffffffffffffff1673ffffffffffffffffffffffffffffffffffffffff163373ffffffffffffffffffffffffffffffffffffffff1614610e80576040517f08c379a0000000000000000000000000000000000000000000000000000000008152600401610e7790612237565b60405180910390fd5b600160009054906101000a900473ffffffffffffffffffffffffffffffffffffffff1673ffffffffffffffffffffffffffffffffffffffff168273ffffffffffffffffffffffffffffffffffffffff161415610f11576040517f08c379a0000000000000000000000000000000000000000000000000000000008152600401610f0890612566565b60405180910390fd5b8060035411610f55576040517f08c379a0000000000000000000000000000000000000000000000000000000008152600401610f4c906125d2565b60405180910390fd5b60076040518061012001604052808781526020018681526020018581526020018473ffffffffffffffffffffffffffffffffffffffff1681526020018381526020016000151581526020016000815260200160055481526020014281525090806001815401808255809150506001900390600052602060002090600902016000909190919091506000820151816000019080519060200190610ff89291906116ed565b5060208201518160010190805190602001906110159291906116ed565b5060408201518160020190805190602001906110329291906116ed565b5060608201518160030160006101000a81548173ffffffffffffffffffffffffffffffffffffffff021916908373ffffffffffffffffffffffffffffffffffffffff1602179055506080820151816004015560a08201518160050160006101000a81548160ff02191690831515021790555060c0820151816006015560e0820151816007015561010082015181600801555050600560008154809291906110d890611fb3565b91905055505050505050565b60055481565b6002546000803373ffffffffffffffffffffffffffffffffffffffff1673ffffffffffffffffffffffffffffffffffffffff1681526020019081526020016000206001015411801561118e5750600015156000803373ffffffffffffffffffffffffffffffffffffffff1673ffffffffffffffffffffffffffffffffffffffff16815260200190815260200160002060000160009054906101000a900460ff161515145b6111cd576040517f08c379a00000000000000000000000000000000000000000000000000000000081526004016111c49061263e565b60405180910390fd5b60003390508073ffffffffffffffffffffffffffffffffffffffff166108fc6000808473ffffffffffffffffffffffffffffffffffffffff1673ffffffffffffffffffffffffffffffffffffffff168152602001908152602001600020600101549081150290604051600060405180830381858888f19350505050158015611259573d6000803e3d6000fd5b506000808273ffffffffffffffffffffffffffffffffffffffff1673ffffffffffffffffffffffffffffffffffffffff16815260200190815260200160002060010154600360008282546112ad919061238f565b9250508190555060008060008373ffffffffffffffffffffffffffffffffffffffff1673ffffffffffffffffffffffffffffffffffffffff168152602001908152602001600020600101819055506004600081548092919061130e9061265e565b919050555050565b60035481565b600080600660008581526020019081526020016000208054806020026020016040519081016040528092919081815260200182805480156113b257602002820191906000526020600020905b8160009054906101000a900473ffffffffffffffffffffffffffffffffffffffff1673ffffffffffffffffffffffffffffffffffffffff1681526020019060010190808311611368575b5050505050905060005b8151811015611431578373ffffffffffffffffffffffffffffffffffffffff168282815181106113ef576113ee6120be565b5b602002602001015173ffffffffffffffffffffffffffffffffffffffff16141561141e57600192505050611438565b808061142990611fb3565b9150506113bc565b5060009150505b92915050565b60606007805480602002602001604051908101604052809291908181526020016000905b828210156116e4578382906000526020600020906009020160405180610120016040529081600082018054611496906123f2565b80601f01602080910402602001604051908101604052809291908181526020018280546114c2906123f2565b801561150f5780601f106114e45761010080835404028352916020019161150f565b820191906000526020600020905b8154815290600101906020018083116114f257829003601f168201915b50505050508152602001600182018054611528906123f2565b80601f0160208091040260200160405190810160405280929190818152602001828054611554906123f2565b80156115a15780601f10611576576101008083540402835291602001916115a1565b820191906000526020600020905b81548152906001019060200180831161158457829003601f168201915b505050505081526020016002820180546115ba906123f2565b80601f01602080910402602001604051908101604052809291908181526020018280546115e6906123f2565b80156116335780601f1061160857610100808354040283529160200191611633565b820191906000526020600020905b81548152906001019060200180831161161657829003601f168201915b505050505081526020016003820160009054906101000a900473ffffffffffffffffffffffffffffffffffffffff1673ffffffffffffffffffffffffffffffffffffffff1673ffffffffffffffffffffffffffffffffffffffff168152602001600482015481526020016005820160009054906101000a900460ff16151515158152602001600682015481526020016007820154815260200160088201548152505081526020019060010190611462565b50505050905090565b8280546116f9906123f2565b90600052602060002090601f01602090048101928261171b5760008555611762565b82601f1061173457805160ff1916838001178555611762565b82800160010185558215611762579182015b82811115611761578251825591602001919060010190611746565b5b50905061176f9190611773565b5090565b5b8082111561178c576000816000905550600101611774565b5090565b6000819050919050565b6117a381611790565b82525050565b60006020820190506117be600083018461179a565b92915050565b60008115159050919050565b6117d9816117c4565b82525050565b60006020820190506117f460008301846117d0565b92915050565b6000604051905090565b600080fd5b600080fd5b600073ffffffffffffffffffffffffffffffffffffffff82169050919050565b60006118398261180e565b9050919050565b6118498161182e565b811461185457600080fd5b50565b60008135905061186681611840565b92915050565b60006020828403121561188257611881611804565b5b600061189084828501611857565b91505092915050565b60006040820190506118ae60008301856117d0565b6118bb602083018461179a565b9392505050565b6118cb81611790565b81146118d657600080fd5b50565b6000813590506118e8816118c2565b92915050565b60006020828403121561190457611903611804565b5b6000611912848285016118d9565b91505092915050565b6119248161182e565b82525050565b600060208201905061193f600083018461191b565b92915050565b600081519050919050565b600082825260208201905092915050565b60005b8381101561197f578082015181840152602081019050611964565b8381111561198e576000848401525b50505050565b6000601f19601f8301169050919050565b60006119b082611945565b6119ba8185611950565b93506119ca818560208601611961565b6119d381611994565b840191505092915050565b60006101208201905081810360008301526119f9818c6119a5565b90508181036020830152611a0d818b6119a5565b90508181036040830152611a21818a6119a5565b9050611a30606083018961191b565b611a3d608083018861179a565b611a4a60a08301876117d0565b611a5760c083018661179a565b611a6460e083018561179a565b611a7261010083018461179a565b9a9950505050505050505050565b600080fd5b600080fd5b7f4e487b7100000000000000000000000000000000000000000000000000000000600052604160045260246000fd5b611ac282611994565b810181811067ffffffffffffffff82111715611ae157611ae0611a8a565b5b80604052505050565b6000611af46117fa565b9050611b008282611ab9565b919050565b600067ffffffffffffffff821115611b2057611b1f611a8a565b5b611b2982611994565b9050602081019050919050565b82818337600083830152505050565b6000611b58611b5384611b05565b611aea565b905082815260208101848484011115611b7457611b73611a85565b5b611b7f848285611b36565b509392505050565b600082601f830112611b9c57611b9b611a80565b5b8135611bac848260208601611b45565b91505092915050565b600080600080600060a08688031215611bd157611bd0611804565b5b600086013567ffffffffffffffff811115611bef57611bee611809565b5b611bfb88828901611b87565b955050602086013567ffffffffffffffff811115611c1c57611c1b611809565b5b611c2888828901611b87565b945050604086013567ffffffffffffffff811115611c4957611c48611809565b5b611c5588828901611b87565b9350506060611c6688828901611857565b9250506080611c77888289016118d9565b9150509295509295909350565b60008060408385031215611c9b57611c9a611804565b5b6000611ca9858286016118d9565b9250506020611cba85828601611857565b9150509250929050565b600081519050919050565b600082825260208201905092915050565b6000819050602082019050919050565b600082825260208201905092915050565b6000611d0c82611945565b611d168185611cf0565b9350611d26818560208601611961565b611d2f81611994565b840191505092915050565b611d438161182e565b82525050565b611d5281611790565b82525050565b611d61816117c4565b82525050565b6000610120830160008301518482036000860152611d858282611d01565b91505060208301518482036020860152611d9f8282611d01565b91505060408301518482036040860152611db98282611d01565b9150506060830151611dce6060860182611d3a565b506080830151611de16080860182611d49565b5060a0830151611df460a0860182611d58565b5060c0830151611e0760c0860182611d49565b5060e0830151611e1a60e0860182611d49565b50610100830151611e2f610100860182611d49565b508091505092915050565b6000611e468383611d67565b905092915050565b6000602082019050919050565b6000611e6682611cc4565b611e708185611ccf565b935083602082028501611e8285611ce0565b8060005b85811015611ebe5784840389528151611e9f8582611e3a565b9450611eaa83611e4e565b925060208a01995050600181019050611e86565b50829750879550505050505092915050565b60006020820190508181036000830152611eea8184611e5b565b905092915050565b7f796f757220616d6f756e74206973206c657373207468616e206d696e696d756d60008201527f636f6e747269627574696f6e0000000000000000000000000000000000000000602082015250565b6000611f4e602c83611950565b9150611f5982611ef2565b604082019050919050565b60006020820190508181036000830152611f7d81611f41565b9050919050565b7f4e487b7100000000000000000000000000000000000000000000000000000000600052601160045260246000fd5b6000611fbe82611790565b91507fffffffffffffffffffffffffffffffffffffffffffffffffffffffffffffffff821415611ff157611ff0611f84565b5b600182019050919050565b600061200782611790565b915061201283611790565b9250827fffffffffffffffffffffffffffffffffffffffffffffffffffffffffffffffff0382111561204757612046611f84565b5b828201905092915050565b7f596f752063616e6e6f7420566f74650000000000000000000000000000000000600082015250565b6000612088600f83611950565b915061209382612052565b602082019050919050565b600060208201905081810360008301526120b78161207b565b9050919050565b7f4e487b7100000000000000000000000000000000000000000000000000000000600052603260045260246000fd5b7f596f75206861766520616c726561647920766f74656400000000000000000000600082015250565b6000612123601683611950565b915061212e826120ed565b602082019050919050565b6000602082019050818103600083015261215281612116565b9050919050565b7f54686973207265717565737420697320636f6d706c6574656400000000000000600082015250565b600061218f601983611950565b915061219a82612159565b602082019050919050565b600060208201905081810360008301526121be81612182565b9050919050565b7f4f6e6c79206d616e616765722063616e2063616c6c20746869732066756e637460008201527f696f6e0000000000000000000000000000000000000000000000000000000000602082015250565b6000612221602383611950565b915061222c826121c5565b604082019050919050565b6000602082019050818103600083015261225081612214565b9050919050565b7f536f72727920776520646f6e2774206861766520656e6f756768206d6f6e6579600082015250565b600061228d602083611950565b915061229882612257565b602082019050919050565b600060208201905081810360008301526122bc81612280565b9050919050565b7f4e487b7100000000000000000000000000000000000000000000000000000000600052601260045260246000fd5b60006122fd82611790565b915061230883611790565b925082612318576123176122c3565b5b828204905092915050565b7f696e636f6d70656c65746520766f74696e6720697320646f6e65000000000000600082015250565b6000612359601a83611950565b915061236482612323565b602082019050919050565b600060208201905081810360008301526123888161234c565b9050919050565b600061239a82611790565b91506123a583611790565b9250828210156123b8576123b7611f84565b5b828203905092915050565b7f4e487b7100000000000000000000000000000000000000000000000000000000600052602260045260246000fd5b6000600282049050600182168061240a57607f821691505b6020821081141561241e5761241d6123c3565b5b50919050565b60008190508160005260206000209050919050565b60008154612446816123f2565b6124508186611950565b9450600182166000811461246b576001811461247d576124b0565b60ff19831686526020860193506124b0565b61248685612424565b60005b838110156124a857815481890152600182019150602081019050612489565b808801955050505b50505092915050565b600060a08201905081810360008301526124d38188612439565b905081810360208301526124e78187612439565b90506124f6604083018661191b565b612503606083018561179a565b612510608083018461179a565b9695505050505050565b7f7468697320726563697069656e74206973206e6f7420616c6c6f776564000000600082015250565b6000612550601d83611950565b915061255b8261251a565b602082019050919050565b6000602082019050818103600083015261257f81612543565b9050919050565b7f416d6f756e7420666f72207265717565737420697320746f6f20686967680000600082015250565b60006125bc601e83611950565b91506125c782612586565b602082019050919050565b600060208201905081810360008301526125eb816125af565b9050919050565b7f596f7520617265206e6f7420656c696769626c6520666f7220726566756e6400600082015250565b6000612628601f83611950565b9150612633826125f2565b602082019050919050565b600060208201905081810360008301526126578161261b565b9050919050565b600061266982611790565b9150600082141561267d5761267c611f84565b5b60018203905091905056fea264697066735822122018fd66193b22feb9a055f5af17aa69c1ee35c4cde3b34c228d17792b308033ad64736f6c63430008090033",
  "linkReferences": {},
  "deployedLinkReferences": {}
}